{
  "_format": "hh-sol-artifact-1",
  "contractName": "Color",
  "sourceName": "contracts/Color.sol",
  "abi": [
    {
      "inputs": [],
      "stateMutability": "nonpayable",
      "type": "constructor"
    },
    {
      "anonymous": false,
      "inputs": [
        {
          "indexed": true,
          "internalType": "address",
          "name": "owner",
          "type": "address"
        },
        {
          "indexed": true,
          "internalType": "address",
          "name": "approved",
          "type": "address"
        },
        {
          "indexed": true,
          "internalType": "uint256",
          "name": "tokenId",
          "type": "uint256"
        }
      ],
      "name": "Approval",
      "type": "event"
    },
    {
      "anonymous": false,
      "inputs": [
        {
          "indexed": true,
          "internalType": "address",
          "name": "owner",
          "type": "address"
        },
        {
          "indexed": true,
          "internalType": "address",
          "name": "operator",
          "type": "address"
        },
        {
          "indexed": false,
          "internalType": "bool",
          "name": "approved",
          "type": "bool"
        }
      ],
      "name": "ApprovalForAll",
      "type": "event"
    },
    {
      "anonymous": false,
      "inputs": [
        {
          "indexed": true,
          "internalType": "address",
          "name": "previousOwner",
          "type": "address"
        },
        {
          "indexed": true,
          "internalType": "address",
          "name": "newOwner",
          "type": "address"
        }
      ],
      "name": "OwnershipTransferred",
      "type": "event"
    },
    {
      "anonymous": false,
      "inputs": [
        {
          "indexed": true,
          "internalType": "address",
          "name": "from",
          "type": "address"
        },
        {
          "indexed": true,
          "internalType": "address",
          "name": "to",
          "type": "address"
        },
        {
          "indexed": true,
          "internalType": "uint256",
          "name": "tokenId",
          "type": "uint256"
        }
      ],
      "name": "Transfer",
      "type": "event"
    },
    {
      "inputs": [
        {
          "internalType": "address",
          "name": "to",
          "type": "address"
        },
        {
          "internalType": "uint256",
          "name": "tokenId",
          "type": "uint256"
        }
      ],
      "name": "approve",
      "outputs": [],
      "stateMutability": "nonpayable",
      "type": "function"
    },
    {
      "inputs": [
        {
          "internalType": "address",
          "name": "owner",
          "type": "address"
        }
      ],
      "name": "balanceOf",
      "outputs": [
        {
          "internalType": "uint256",
          "name": "",
          "type": "uint256"
        }
      ],
      "stateMutability": "view",
      "type": "function"
    },
    {
      "inputs": [
        {
          "internalType": "uint256",
          "name": "",
          "type": "uint256"
        }
      ],
      "name": "colors",
      "outputs": [
        {
          "internalType": "string",
          "name": "",
          "type": "string"
        }
      ],
      "stateMutability": "view",
      "type": "function"
    },
    {
      "inputs": [
        {
          "internalType": "uint256",
          "name": "tokenId",
          "type": "uint256"
        }
      ],
      "name": "getApproved",
      "outputs": [
        {
          "internalType": "address",
          "name": "",
          "type": "address"
        }
      ],
      "stateMutability": "view",
      "type": "function"
    },
    {
      "inputs": [
        {
          "internalType": "address",
          "name": "owner",
          "type": "address"
        },
        {
          "internalType": "address",
          "name": "operator",
          "type": "address"
        }
      ],
      "name": "isApprovedForAll",
      "outputs": [
        {
          "internalType": "bool",
          "name": "",
          "type": "bool"
        }
      ],
      "stateMutability": "view",
      "type": "function"
    },
    {
      "inputs": [
        {
          "internalType": "string",
          "name": "_color",
          "type": "string"
        }
      ],
      "name": "mint",
      "outputs": [],
      "stateMutability": "nonpayable",
      "type": "function"
    },
    {
      "inputs": [],
      "name": "name",
      "outputs": [
        {
          "internalType": "string",
          "name": "",
          "type": "string"
        }
      ],
      "stateMutability": "view",
      "type": "function"
    },
    {
      "inputs": [],
      "name": "owner",
      "outputs": [
        {
          "internalType": "address",
          "name": "",
          "type": "address"
        }
      ],
      "stateMutability": "view",
      "type": "function"
    },
    {
      "inputs": [
        {
          "internalType": "uint256",
          "name": "tokenId",
          "type": "uint256"
        }
      ],
      "name": "ownerOf",
      "outputs": [
        {
          "internalType": "address",
          "name": "",
          "type": "address"
        }
      ],
      "stateMutability": "view",
      "type": "function"
    },
    {
      "inputs": [],
      "name": "renounceOwnership",
      "outputs": [],
      "stateMutability": "nonpayable",
      "type": "function"
    },
    {
      "inputs": [
        {
          "internalType": "address",
          "name": "from",
          "type": "address"
        },
        {
          "internalType": "address",
          "name": "to",
          "type": "address"
        },
        {
          "internalType": "uint256",
          "name": "tokenId",
          "type": "uint256"
        }
      ],
      "name": "safeTransferFrom",
      "outputs": [],
      "stateMutability": "nonpayable",
      "type": "function"
    },
    {
      "inputs": [
        {
          "internalType": "address",
          "name": "from",
          "type": "address"
        },
        {
          "internalType": "address",
          "name": "to",
          "type": "address"
        },
        {
          "internalType": "uint256",
          "name": "tokenId",
          "type": "uint256"
        },
        {
          "internalType": "bytes",
          "name": "_data",
          "type": "bytes"
        }
      ],
      "name": "safeTransferFrom",
      "outputs": [],
      "stateMutability": "nonpayable",
      "type": "function"
    },
    {
      "inputs": [
        {
          "internalType": "address",
          "name": "operator",
          "type": "address"
        },
        {
          "internalType": "bool",
          "name": "approved",
          "type": "bool"
        }
      ],
      "name": "setApprovalForAll",
      "outputs": [],
      "stateMutability": "nonpayable",
      "type": "function"
    },
    {
      "inputs": [
        {
          "internalType": "bytes4",
          "name": "interfaceId",
          "type": "bytes4"
        }
      ],
      "name": "supportsInterface",
      "outputs": [
        {
          "internalType": "bool",
          "name": "",
          "type": "bool"
        }
      ],
      "stateMutability": "view",
      "type": "function"
    },
    {
      "inputs": [],
      "name": "symbol",
      "outputs": [
        {
          "internalType": "string",
          "name": "",
          "type": "string"
        }
      ],
      "stateMutability": "view",
      "type": "function"
    },
    {
      "inputs": [
        {
          "internalType": "uint256",
          "name": "tokenId",
          "type": "uint256"
        }
      ],
      "name": "tokenURI",
      "outputs": [
        {
          "internalType": "string",
          "name": "",
          "type": "string"
        }
      ],
      "stateMutability": "view",
      "type": "function"
    },
    {
      "inputs": [],
      "name": "totalSupply",
      "outputs": [
        {
          "internalType": "uint256",
          "name": "",
          "type": "uint256"
        }
      ],
      "stateMutability": "view",
      "type": "function"
    },
    {
      "inputs": [
        {
          "internalType": "address",
          "name": "from",
          "type": "address"
        },
        {
          "internalType": "address",
          "name": "to",
          "type": "address"
        },
        {
          "internalType": "uint256",
          "name": "tokenId",
          "type": "uint256"
        }
      ],
      "name": "transferFrom",
      "outputs": [],
      "stateMutability": "nonpayable",
      "type": "function"
    },
    {
      "inputs": [
        {
          "internalType": "address",
          "name": "newOwner",
          "type": "address"
        }
      ],
      "name": "transferOwnership",
      "outputs": [],
      "stateMutability": "nonpayable",
      "type": "function"
    }
  ],
  "bytecode": "0x60806040523480156200001157600080fd5b506040518060400160405280600581526020017f436f6c6f720000000000000000000000000000000000000000000000000000008152506040518060400160405280600581526020017f434f4c4f5200000000000000000000000000000000000000000000000000000081525081600090816200008f919062000412565b508060019081620000a1919062000412565b505050620000c4620000b8620000ca60201b60201c565b620000d260201b60201c565b620004f9565b600033905090565b6000600660009054906101000a900473ffffffffffffffffffffffffffffffffffffffff16905081600660006101000a81548173ffffffffffffffffffffffffffffffffffffffff021916908373ffffffffffffffffffffffffffffffffffffffff1602179055508173ffffffffffffffffffffffffffffffffffffffff168173ffffffffffffffffffffffffffffffffffffffff167f8be0079c531659141344cd1fd0a4f28419497f9722a3daafe3b4186f6b6457e060405160405180910390a35050565b600081519050919050565b7f4e487b7100000000000000000000000000000000000000000000000000000000600052604160045260246000fd5b7f4e487b7100000000000000000000000000000000000000000000000000000000600052602260045260246000fd5b600060028204905060018216806200021a57607f821691505b60208210810362000230576200022f620001d2565b5b50919050565b60008190508160005260206000209050919050565b60006020601f8301049050919050565b600082821b905092915050565b6000600883026200029a7fffffffffffffffffffffffffffffffffffffffffffffffffffffffffffffffff826200025b565b620002a686836200025b565b95508019841693508086168417925050509392505050565b6000819050919050565b6000819050919050565b6000620002f3620002ed620002e784620002be565b620002c8565b620002be565b9050919050565b6000819050919050565b6200030f83620002d2565b620003276200031e82620002fa565b84845462000268565b825550505050565b600090565b6200033e6200032f565b6200034b81848462000304565b505050565b5b8181101562000373576200036760008262000334565b60018101905062000351565b5050565b601f821115620003c2576200038c8162000236565b62000397846200024b565b81016020851015620003a7578190505b620003bf620003b6856200024b565b83018262000350565b50505b505050565b600082821c905092915050565b6000620003e760001984600802620003c7565b1980831691505092915050565b6000620004028383620003d4565b9150826002028217905092915050565b6200041d8262000198565b67ffffffffffffffff811115620004395762000438620001a3565b5b62000445825462000201565b6200045282828562000377565b600060209050601f8311600181146200048a576000841562000475578287015190505b620004818582620003f4565b865550620004f1565b601f1984166200049a8662000236565b60005b82811015620004c4578489015182556001820191506020850194506020810190506200049d565b86831015620004e45784890151620004e0601f891682620003d4565b8355505b6001600288020188555050505b505050505050565b612fdf80620005096000396000f3fe608060405234801561001057600080fd5b50600436106101215760003560e01c8063715018a6116100ad578063bd11f69d11610071578063bd11f69d146102f4578063c87b56dd14610324578063d85d3d2714610354578063e985e9c514610370578063f2fde38b146103a057610121565b8063715018a6146102765780638da5cb5b1461028057806395d89b411461029e578063a22cb465146102bc578063b88d4fde146102d857610121565b806318160ddd116100f457806318160ddd146101c057806323b872dd146101de57806342842e0e146101fa5780636352211e1461021657806370a082311461024657610121565b806301ffc9a71461012657806306fdde0314610156578063081812fc14610174578063095ea7b3146101a4575b600080fd5b610140600480360381019061013b9190611b12565b6103bc565b60405161014d9190611b5a565b60405180910390f35b61015e61049e565b60405161016b9190611c05565b60405180910390f35b61018e60048036038101906101899190611c5d565b610530565b60405161019b9190611ccb565b60405180910390f35b6101be60048036038101906101b99190611d12565b6105b5565b005b6101c86106cc565b6040516101d59190611d61565b60405180910390f35b6101f860048036038101906101f39190611d7c565b6106d2565b005b610214600480360381019061020f9190611d7c565b610732565b005b610230600480360381019061022b9190611c5d565b610752565b60405161023d9190611ccb565b60405180910390f35b610260600480360381019061025b9190611dcf565b610803565b60405161026d9190611d61565b60405180910390f35b61027e6108ba565b005b610288610942565b6040516102959190611ccb565b60405180910390f35b6102a661096c565b6040516102b39190611c05565b60405180910390f35b6102d660048036038101906102d19190611e28565b6109fe565b005b6102f260048036038101906102ed9190611f9d565b610a14565b005b61030e60048036038101906103099190611c5d565b610a76565b60405161031b9190611c05565b60405180910390f35b61033e60048036038101906103399190611c5d565b610b22565b60405161034b9190611c05565b60405180910390f35b61036e600480360381019061036991906120c1565b610bc9565b005b61038a6004803603810190610385919061210a565b610cae565b6040516103979190611b5a565b60405180910390f35b6103ba60048036038101906103b59190611dcf565b610d42565b005b60007f80ac58cd000000000000000000000000000000000000000000000000000000007bffffffffffffffffffffffffffffffffffffffffffffffffffffffff1916827bffffffffffffffffffffffffffffffffffffffffffffffffffffffff1916148061048757507f5b5e139f000000000000000000000000000000000000000000000000000000007bffffffffffffffffffffffffffffffffffffffffffffffffffffffff1916827bffffffffffffffffffffffffffffffffffffffffffffffffffffffff1916145b80610497575061049682610e39565b5b9050919050565b6060600080546104ad90612179565b80601f01602080910402602001604051908101604052809291908181526020018280546104d990612179565b80156105265780601f106104fb57610100808354040283529160200191610526565b820191906000526020600020905b81548152906001019060200180831161050957829003601f168201915b5050505050905090565b600061053b82610ea3565b61057a576040517f08c379a00000000000000000000000000000000000000000000000000000000081526004016105719061221c565b60405180910390fd5b6004600083815260200190815260200160002060009054906101000a900473ffffffffffffffffffffffffffffffffffffffff169050919050565b60006105c082610752565b90508073ffffffffffffffffffffffffffffffffffffffff168373ffffffffffffffffffffffffffffffffffffffff1603610630576040517f08c379a0000000000000000000000000000000000000000000000000000000008152600401610627906122ae565b60405180910390fd5b8073ffffffffffffffffffffffffffffffffffffffff1661064f610f0f565b73ffffffffffffffffffffffffffffffffffffffff16148061067e575061067d81610678610f0f565b610cae565b5b6106bd576040517f08c379a00000000000000000000000000000000000000000000000000000000081526004016106b490612340565b60405180910390fd5b6106c78383610f17565b505050565b600a5481565b6106e36106dd610f0f565b82610fd0565b610722576040517f08c379a0000000000000000000000000000000000000000000000000000000008152600401610719906123d2565b60405180910390fd5b61072d8383836110ae565b505050565b61074d83838360405180602001604052806000815250610a14565b505050565b6000806002600084815260200190815260200160002060009054906101000a900473ffffffffffffffffffffffffffffffffffffffff169050600073ffffffffffffffffffffffffffffffffffffffff168173ffffffffffffffffffffffffffffffffffffffff16036107fa576040517f08c379a00000000000000000000000000000000000000000000000000000000081526004016107f190612464565b60405180910390fd5b80915050919050565b60008073ffffffffffffffffffffffffffffffffffffffff168273ffffffffffffffffffffffffffffffffffffffff1603610873576040517f08c379a000000000000000000000000000000000000000000000000000000000815260040161086a906124f6565b60405180910390fd5b600360008373ffffffffffffffffffffffffffffffffffffffff1673ffffffffffffffffffffffffffffffffffffffff168152602001908152602001600020549050919050565b6108c2610f0f565b73ffffffffffffffffffffffffffffffffffffffff166108e0610942565b73ffffffffffffffffffffffffffffffffffffffff1614610936576040517f08c379a000000000000000000000000000000000000000000000000000000000815260040161092d90612562565b60405180910390fd5b6109406000611314565b565b6000600660009054906101000a900473ffffffffffffffffffffffffffffffffffffffff16905090565b60606001805461097b90612179565b80601f01602080910402602001604051908101604052809291908181526020018280546109a790612179565b80156109f45780601f106109c9576101008083540402835291602001916109f4565b820191906000526020600020905b8154815290600101906020018083116109d757829003601f168201915b5050505050905090565b610a10610a09610f0f565b83836113da565b5050565b610a25610a1f610f0f565b83610fd0565b610a64576040517f08c379a0000000000000000000000000000000000000000000000000000000008152600401610a5b906123d2565b60405180910390fd5b610a7084848484611546565b50505050565b60078181548110610a8657600080fd5b906000526020600020016000915090508054610aa190612179565b80601f0160208091040260200160405190810160405280929190818152602001828054610acd90612179565b8015610b1a5780601f10610aef57610100808354040283529160200191610b1a565b820191906000526020600020905b815481529060010190602001808311610afd57829003601f168201915b505050505081565b6060610b2d82610ea3565b610b6c576040517f08c379a0000000000000000000000000000000000000000000000000000000008152600401610b63906125f4565b60405180910390fd5b6000610b766115a2565b90506000815111610b965760405180602001604052806000815250610bc1565b80610ba0846115b9565b604051602001610bb1929190612650565b6040516020818303038152906040525b915050919050565b600881604051610bd99190612674565b908152602001604051809103902060009054906101000a900460ff1615610bff57600080fd5b600160096000828254610c1291906126ba565b925050819055506001600a6000828254610c2c91906126ba565b92505081905550600781908060018154018082558091505060019003906000526020600020016000909190919091509081610c67919061289a565b50610c7433600954611719565b6001600882604051610c869190612674565b908152602001604051809103902060006101000a81548160ff02191690831515021790555050565b6000600560008473ffffffffffffffffffffffffffffffffffffffff1673ffffffffffffffffffffffffffffffffffffffff16815260200190815260200160002060008373ffffffffffffffffffffffffffffffffffffffff1673ffffffffffffffffffffffffffffffffffffffff16815260200190815260200160002060009054906101000a900460ff16905092915050565b610d4a610f0f565b73ffffffffffffffffffffffffffffffffffffffff16610d68610942565b73ffffffffffffffffffffffffffffffffffffffff1614610dbe576040517f08c379a0000000000000000000000000000000000000000000000000000000008152600401610db590612562565b60405180910390fd5b600073ffffffffffffffffffffffffffffffffffffffff168173ffffffffffffffffffffffffffffffffffffffff1603610e2d576040517f08c379a0000000000000000000000000000000000000000000000000000000008152600401610e24906129de565b60405180910390fd5b610e3681611314565b50565b60007f01ffc9a7000000000000000000000000000000000000000000000000000000007bffffffffffffffffffffffffffffffffffffffffffffffffffffffff1916827bffffffffffffffffffffffffffffffffffffffffffffffffffffffff1916149050919050565b60008073ffffffffffffffffffffffffffffffffffffffff166002600084815260200190815260200160002060009054906101000a900473ffffffffffffffffffffffffffffffffffffffff1673ffffffffffffffffffffffffffffffffffffffff1614159050919050565b600033905090565b816004600083815260200190815260200160002060006101000a81548173ffffffffffffffffffffffffffffffffffffffff021916908373ffffffffffffffffffffffffffffffffffffffff160217905550808273ffffffffffffffffffffffffffffffffffffffff16610f8a83610752565b73ffffffffffffffffffffffffffffffffffffffff167f8c5be1e5ebec7d5bd14f71427d1e84f3dd0314c0f7b2291e5b200ac8c7c3b92560405160405180910390a45050565b6000610fdb82610ea3565b61101a576040517f08c379a000000000000000000000000000000000000000000000000000000000815260040161101190612a70565b60405180910390fd5b600061102583610752565b90508073ffffffffffffffffffffffffffffffffffffffff168473ffffffffffffffffffffffffffffffffffffffff16148061109457508373ffffffffffffffffffffffffffffffffffffffff1661107c84610530565b73ffffffffffffffffffffffffffffffffffffffff16145b806110a557506110a48185610cae565b5b91505092915050565b8273ffffffffffffffffffffffffffffffffffffffff166110ce82610752565b73ffffffffffffffffffffffffffffffffffffffff1614611124576040517f08c379a000000000000000000000000000000000000000000000000000000000815260040161111b90612b02565b60405180910390fd5b600073ffffffffffffffffffffffffffffffffffffffff168273ffffffffffffffffffffffffffffffffffffffff1603611193576040517f08c379a000000000000000000000000000000000000000000000000000000000815260040161118a90612b94565b60405180910390fd5b61119e8383836118f2565b6111a9600082610f17565b6001600360008573ffffffffffffffffffffffffffffffffffffffff1673ffffffffffffffffffffffffffffffffffffffff16815260200190815260200160002060008282546111f99190612bb4565b925050819055506001600360008473ffffffffffffffffffffffffffffffffffffffff1673ffffffffffffffffffffffffffffffffffffffff168152602001908152602001600020600082825461125091906126ba565b92505081905550816002600083815260200190815260200160002060006101000a81548173ffffffffffffffffffffffffffffffffffffffff021916908373ffffffffffffffffffffffffffffffffffffffff160217905550808273ffffffffffffffffffffffffffffffffffffffff168473ffffffffffffffffffffffffffffffffffffffff167fddf252ad1be2c89b69c2b068fc378daa952ba7f163c4a11628f55a4df523b3ef60405160405180910390a461130f8383836118f7565b505050565b6000600660009054906101000a900473ffffffffffffffffffffffffffffffffffffffff16905081600660006101000a81548173ffffffffffffffffffffffffffffffffffffffff021916908373ffffffffffffffffffffffffffffffffffffffff1602179055508173ffffffffffffffffffffffffffffffffffffffff168173ffffffffffffffffffffffffffffffffffffffff167f8be0079c531659141344cd1fd0a4f28419497f9722a3daafe3b4186f6b6457e060405160405180910390a35050565b8173ffffffffffffffffffffffffffffffffffffffff168373ffffffffffffffffffffffffffffffffffffffff1603611448576040517f08c379a000000000000000000000000000000000000000000000000000000000815260040161143f90612c34565b60405180910390fd5b80600560008573ffffffffffffffffffffffffffffffffffffffff1673ffffffffffffffffffffffffffffffffffffffff16815260200190815260200160002060008473ffffffffffffffffffffffffffffffffffffffff1673ffffffffffffffffffffffffffffffffffffffff16815260200190815260200160002060006101000a81548160ff0219169083151502179055508173ffffffffffffffffffffffffffffffffffffffff168373ffffffffffffffffffffffffffffffffffffffff167f17307eab39ab6107e8899845ad3d59bd9653f200f220920489ca2b5937696c31836040516115399190611b5a565b60405180910390a3505050565b6115518484846110ae565b61155d848484846118fc565b61159c576040517f08c379a000000000000000000000000000000000000000000000000000000000815260040161159390612cc6565b60405180910390fd5b50505050565b606060405180602001604052806000815250905090565b606060008203611600576040518060400160405280600181526020017f30000000000000000000000000000000000000000000000000000000000000008152509050611714565b600082905060005b6000821461163257808061161b90612ce6565b915050600a8261162b9190612d5d565b9150611608565b60008167ffffffffffffffff81111561164e5761164d611e72565b5b6040519080825280601f01601f1916602001820160405280156116805781602001600182028036833780820191505090505b5090505b6000851461170d576001826116999190612bb4565b9150600a856116a89190612d8e565b60306116b491906126ba565b60f81b8183815181106116ca576116c9612dbf565b5b60200101907effffffffffffffffffffffffffffffffffffffffffffffffffffffffffffff1916908160001a905350600a856117069190612d5d565b9450611684565b8093505050505b919050565b600073ffffffffffffffffffffffffffffffffffffffff168273ffffffffffffffffffffffffffffffffffffffff1603611788576040517f08c379a000000000000000000000000000000000000000000000000000000000815260040161177f90612e3a565b60405180910390fd5b61179181610ea3565b156117d1576040517f08c379a00000000000000000000000000000000000000000000000000000000081526004016117c890612ea6565b60405180910390fd5b6117dd600083836118f2565b6001600360008473ffffffffffffffffffffffffffffffffffffffff1673ffffffffffffffffffffffffffffffffffffffff168152602001908152602001600020600082825461182d91906126ba565b92505081905550816002600083815260200190815260200160002060006101000a81548173ffffffffffffffffffffffffffffffffffffffff021916908373ffffffffffffffffffffffffffffffffffffffff160217905550808273ffffffffffffffffffffffffffffffffffffffff16600073ffffffffffffffffffffffffffffffffffffffff167fddf252ad1be2c89b69c2b068fc378daa952ba7f163c4a11628f55a4df523b3ef60405160405180910390a46118ee600083836118f7565b5050565b505050565b505050565b600061191d8473ffffffffffffffffffffffffffffffffffffffff16611a83565b15611a76578373ffffffffffffffffffffffffffffffffffffffff1663150b7a02611946610f0f565b8786866040518563ffffffff1660e01b81526004016119689493929190612f1b565b6020604051808303816000875af19250505080156119a457506040513d601f19601f820116820180604052508101906119a19190612f7c565b60015b611a26573d80600081146119d4576040519150601f19603f3d011682016040523d82523d6000602084013e6119d9565b606091505b506000815103611a1e576040517f08c379a0000000000000000000000000000000000000000000000000000000008152600401611a1590612cc6565b60405180910390fd5b805181602001fd5b63150b7a0260e01b7bffffffffffffffffffffffffffffffffffffffffffffffffffffffff1916817bffffffffffffffffffffffffffffffffffffffffffffffffffffffff191614915050611a7b565b600190505b949350505050565b6000808273ffffffffffffffffffffffffffffffffffffffff163b119050919050565b6000604051905090565b600080fd5b600080fd5b60007fffffffff0000000000000000000000000000000000000000000000000000000082169050919050565b611aef81611aba565b8114611afa57600080fd5b50565b600081359050611b0c81611ae6565b92915050565b600060208284031215611b2857611b27611ab0565b5b6000611b3684828501611afd565b91505092915050565b60008115159050919050565b611b5481611b3f565b82525050565b6000602082019050611b6f6000830184611b4b565b92915050565b600081519050919050565b600082825260208201905092915050565b60005b83811015611baf578082015181840152602081019050611b94565b60008484015250505050565b6000601f19601f8301169050919050565b6000611bd782611b75565b611be18185611b80565b9350611bf1818560208601611b91565b611bfa81611bbb565b840191505092915050565b60006020820190508181036000830152611c1f8184611bcc565b905092915050565b6000819050919050565b611c3a81611c27565b8114611c4557600080fd5b50565b600081359050611c5781611c31565b92915050565b600060208284031215611c7357611c72611ab0565b5b6000611c8184828501611c48565b91505092915050565b600073ffffffffffffffffffffffffffffffffffffffff82169050919050565b6000611cb582611c8a565b9050919050565b611cc581611caa565b82525050565b6000602082019050611ce06000830184611cbc565b92915050565b611cef81611caa565b8114611cfa57600080fd5b50565b600081359050611d0c81611ce6565b92915050565b60008060408385031215611d2957611d28611ab0565b5b6000611d3785828601611cfd565b9250506020611d4885828601611c48565b9150509250929050565b611d5b81611c27565b82525050565b6000602082019050611d766000830184611d52565b92915050565b600080600060608486031215611d9557611d94611ab0565b5b6000611da386828701611cfd565b9350506020611db486828701611cfd565b9250506040611dc586828701611c48565b9150509250925092565b600060208284031215611de557611de4611ab0565b5b6000611df384828501611cfd565b91505092915050565b611e0581611b3f565b8114611e1057600080fd5b50565b600081359050611e2281611dfc565b92915050565b60008060408385031215611e3f57611e3e611ab0565b5b6000611e4d85828601611cfd565b9250506020611e5e85828601611e13565b9150509250929050565b600080fd5b600080fd5b7f4e487b7100000000000000000000000000000000000000000000000000000000600052604160045260246000fd5b611eaa82611bbb565b810181811067ffffffffffffffff82111715611ec957611ec8611e72565b5b80604052505050565b6000611edc611aa6565b9050611ee88282611ea1565b919050565b600067ffffffffffffffff821115611f0857611f07611e72565b5b611f1182611bbb565b9050602081019050919050565b82818337600083830152505050565b6000611f40611f3b84611eed565b611ed2565b905082815260208101848484011115611f5c57611f5b611e6d565b5b611f67848285611f1e565b509392505050565b600082601f830112611f8457611f83611e68565b5b8135611f94848260208601611f2d565b91505092915050565b60008060008060808587031215611fb757611fb6611ab0565b5b6000611fc587828801611cfd565b9450506020611fd687828801611cfd565b9350506040611fe787828801611c48565b925050606085013567ffffffffffffffff81111561200857612007611ab5565b5b61201487828801611f6f565b91505092959194509250565b600067ffffffffffffffff82111561203b5761203a611e72565b5b61204482611bbb565b9050602081019050919050565b600061206461205f84612020565b611ed2565b9050828152602081018484840111156120805761207f611e6d565b5b61208b848285611f1e565b509392505050565b600082601f8301126120a8576120a7611e68565b5b81356120b8848260208601612051565b91505092915050565b6000602082840312156120d7576120d6611ab0565b5b600082013567ffffffffffffffff8111156120f5576120f4611ab5565b5b61210184828501612093565b91505092915050565b6000806040838503121561212157612120611ab0565b5b600061212f85828601611cfd565b925050602061214085828601611cfd565b9150509250929050565b7f4e487b7100000000000000000000000000000000000000000000000000000000600052602260045260246000fd5b6000600282049050600182168061219157607f821691505b6020821081036121a4576121a361214a565b5b50919050565b7f4552433732313a20617070726f76656420717565727920666f72206e6f6e657860008201527f697374656e7420746f6b656e0000000000000000000000000000000000000000602082015250565b6000612206602c83611b80565b9150612211826121aa565b604082019050919050565b60006020820190508181036000830152612235816121f9565b9050919050565b7f4552433732313a20617070726f76616c20746f2063757272656e74206f776e6560008201527f7200000000000000000000000000000000000000000000000000000000000000602082015250565b6000612298602183611b80565b91506122a38261223c565b604082019050919050565b600060208201905081810360008301526122c78161228b565b9050919050565b7f4552433732313a20617070726f76652063616c6c6572206973206e6f74206f7760008201527f6e6572206e6f7220617070726f76656420666f7220616c6c0000000000000000602082015250565b600061232a603883611b80565b9150612335826122ce565b604082019050919050565b600060208201905081810360008301526123598161231d565b9050919050565b7f4552433732313a207472616e736665722063616c6c6572206973206e6f74206f60008201527f776e6572206e6f7220617070726f766564000000000000000000000000000000602082015250565b60006123bc603183611b80565b91506123c782612360565b604082019050919050565b600060208201905081810360008301526123eb816123af565b9050919050565b7f4552433732313a206f776e657220717565727920666f72206e6f6e657869737460008201527f656e7420746f6b656e0000000000000000000000000000000000000000000000602082015250565b600061244e602983611b80565b9150612459826123f2565b604082019050919050565b6000602082019050818103600083015261247d81612441565b9050919050565b7f4552433732313a2062616c616e636520717565727920666f7220746865207a6560008201527f726f206164647265737300000000000000000000000000000000000000000000602082015250565b60006124e0602a83611b80565b91506124eb82612484565b604082019050919050565b6000602082019050818103600083015261250f816124d3565b9050919050565b7f4f776e61626c653a2063616c6c6572206973206e6f7420746865206f776e6572600082015250565b600061254c602083611b80565b915061255782612516565b602082019050919050565b6000602082019050818103600083015261257b8161253f565b9050919050565b7f4552433732314d657461646174613a2055524920717565727920666f72206e6f60008201527f6e6578697374656e7420746f6b656e0000000000000000000000000000000000602082015250565b60006125de602f83611b80565b91506125e982612582565b604082019050919050565b6000602082019050818103600083015261260d816125d1565b9050919050565b600081905092915050565b600061262a82611b75565b6126348185612614565b9350612644818560208601611b91565b80840191505092915050565b600061265c828561261f565b9150612668828461261f565b91508190509392505050565b6000612680828461261f565b915081905092915050565b7f4e487b7100000000000000000000000000000000000000000000000000000000600052601160045260246000fd5b60006126c582611c27565b91506126d083611c27565b92508282019050808211156126e8576126e761268b565b5b92915050565b60008190508160005260206000209050919050565b60006020601f8301049050919050565b600082821b905092915050565b6000600883026127507fffffffffffffffffffffffffffffffffffffffffffffffffffffffffffffffff82612713565b61275a8683612713565b95508019841693508086168417925050509392505050565b6000819050919050565b600061279761279261278d84611c27565b612772565b611c27565b9050919050565b6000819050919050565b6127b18361277c565b6127c56127bd8261279e565b848454612720565b825550505050565b600090565b6127da6127cd565b6127e58184846127a8565b505050565b5b81811015612809576127fe6000826127d2565b6001810190506127eb565b5050565b601f82111561284e5761281f816126ee565b61282884612703565b81016020851015612837578190505b61284b61284385612703565b8301826127ea565b50505b505050565b600082821c905092915050565b600061287160001984600802612853565b1980831691505092915050565b600061288a8383612860565b9150826002028217905092915050565b6128a382611b75565b67ffffffffffffffff8111156128bc576128bb611e72565b5b6128c68254612179565b6128d182828561280d565b600060209050601f83116001811461290457600084156128f2578287015190505b6128fc858261287e565b865550612964565b601f198416612912866126ee565b60005b8281101561293a57848901518255600182019150602085019450602081019050612915565b868310156129575784890151612953601f891682612860565b8355505b6001600288020188555050505b505050505050565b7f4f776e61626c653a206e6577206f776e657220697320746865207a65726f206160008201527f6464726573730000000000000000000000000000000000000000000000000000602082015250565b60006129c8602683611b80565b91506129d38261296c565b604082019050919050565b600060208201905081810360008301526129f7816129bb565b9050919050565b7f4552433732313a206f70657261746f7220717565727920666f72206e6f6e657860008201527f697374656e7420746f6b656e0000000000000000000000000000000000000000602082015250565b6000612a5a602c83611b80565b9150612a65826129fe565b604082019050919050565b60006020820190508181036000830152612a8981612a4d565b9050919050565b7f4552433732313a207472616e736665722066726f6d20696e636f72726563742060008201527f6f776e6572000000000000000000000000000000000000000000000000000000602082015250565b6000612aec602583611b80565b9150612af782612a90565b604082019050919050565b60006020820190508181036000830152612b1b81612adf565b9050919050565b7f4552433732313a207472616e7366657220746f20746865207a65726f2061646460008201527f7265737300000000000000000000000000000000000000000000000000000000602082015250565b6000612b7e602483611b80565b9150612b8982612b22565b604082019050919050565b60006020820190508181036000830152612bad81612b71565b9050919050565b6000612bbf82611c27565b9150612bca83611c27565b9250828203905081811115612be257612be161268b565b5b92915050565b7f4552433732313a20617070726f766520746f2063616c6c657200000000000000600082015250565b6000612c1e601983611b80565b9150612c2982612be8565b602082019050919050565b60006020820190508181036000830152612c4d81612c11565b9050919050565b7f4552433732313a207472616e7366657220746f206e6f6e20455243373231526560008201527f63656976657220696d706c656d656e7465720000000000000000000000000000602082015250565b6000612cb0603283611b80565b9150612cbb82612c54565b604082019050919050565b60006020820190508181036000830152612cdf81612ca3565b9050919050565b6000612cf182611c27565b91507fffffffffffffffffffffffffffffffffffffffffffffffffffffffffffffffff8203612d2357612d2261268b565b5b600182019050919050565b7f4e487b7100000000000000000000000000000000000000000000000000000000600052601260045260246000fd5b6000612d6882611c27565b9150612d7383611c27565b925082612d8357612d82612d2e565b5b828204905092915050565b6000612d9982611c27565b9150612da483611c27565b925082612db457612db3612d2e565b5b828206905092915050565b7f4e487b7100000000000000000000000000000000000000000000000000000000600052603260045260246000fd5b7f4552433732313a206d696e7420746f20746865207a65726f2061646472657373600082015250565b6000612e24602083611b80565b9150612e2f82612dee565b602082019050919050565b60006020820190508181036000830152612e5381612e17565b9050919050565b7f4552433732313a20746f6b656e20616c7265616479206d696e74656400000000600082015250565b6000612e90601c83611b80565b9150612e9b82612e5a565b602082019050919050565b60006020820190508181036000830152612ebf81612e83565b9050919050565b600081519050919050565b600082825260208201905092915050565b6000612eed82612ec6565b612ef78185612ed1565b9350612f07818560208601611b91565b612f1081611bbb565b840191505092915050565b6000608082019050612f306000830187611cbc565b612f3d6020830186611cbc565b612f4a6040830185611d52565b8181036060830152612f5c8184612ee2565b905095945050505050565b600081519050612f7681611ae6565b92915050565b600060208284031215612f9257612f91611ab0565b5b6000612fa084828501612f67565b9150509291505056fea264697066735822122075ed8404e106060c924564b9604a26143bfc6a2d38dd1e0bfa2176fe7ef8282f64736f6c63430008120033",
  "linkReferences": {},
  "deployedLinkReferences": {}
}